{
    "_format": "hh-sol-artifact-1",
    "contractName": "StevenUniverse",
    "sourceName": "contracts/MyContract.sol",
    "abi": [
        {
            "inputs": [],
            "stateMutability": "nonpayable",
            "type": "constructor"
        },
        {
            "inputs": [
                {
                    "internalType": "address",
                    "name": "sender",
                    "type": "address"
                },
                {
                    "internalType": "uint256",
                    "name": "balance",
                    "type": "uint256"
                },
                {
                    "internalType": "uint256",
                    "name": "needed",
                    "type": "uint256"
                },
                {
                    "internalType": "uint256",
                    "name": "tokenId",
                    "type": "uint256"
                }
            ],
            "name": "ERC1155InsufficientBalance",
            "type": "error"
        },
        {
            "inputs": [
                {
                    "internalType": "address",
                    "name": "approver",
                    "type": "address"
                }
            ],
            "name": "ERC1155InvalidApprover",
            "type": "error"
        },
        {
            "inputs": [
                {
                    "internalType": "uint256",
                    "name": "idsLength",
                    "type": "uint256"
                },
                {
                    "internalType": "uint256",
                    "name": "valuesLength",
                    "type": "uint256"
                }
            ],
            "name": "ERC1155InvalidArrayLength",
            "type": "error"
        },
        {
            "inputs": [
                {
                    "internalType": "address",
                    "name": "operator",
                    "type": "address"
                }
            ],
            "name": "ERC1155InvalidOperator",
            "type": "error"
        },
        {
            "inputs": [
                {
                    "internalType": "address",
                    "name": "receiver",
                    "type": "address"
                }
            ],
            "name": "ERC1155InvalidReceiver",
            "type": "error"
        },
        {
            "inputs": [
                {
                    "internalType": "address",
                    "name": "sender",
                    "type": "address"
                }
            ],
            "name": "ERC1155InvalidSender",
            "type": "error"
        },
        {
            "inputs": [
                {
                    "internalType": "address",
                    "name": "operator",
                    "type": "address"
                },
                {
                    "internalType": "address",
                    "name": "owner",
                    "type": "address"
                }
            ],
            "name": "ERC1155MissingApprovalForAll",
            "type": "error"
        },
        {
            "anonymous": false,
            "inputs": [
                {
                    "indexed": true,
                    "internalType": "address",
                    "name": "account",
                    "type": "address"
                },
                {
                    "indexed": true,
                    "internalType": "address",
                    "name": "operator",
                    "type": "address"
                },
                {
                    "indexed": false,
                    "internalType": "bool",
                    "name": "approved",
                    "type": "bool"
                }
            ],
            "name": "ApprovalForAll",
            "type": "event"
        },
        {
            "anonymous": false,
            "inputs": [
                {
                    "indexed": true,
                    "internalType": "address",
                    "name": "operator",
                    "type": "address"
                },
                {
                    "indexed": true,
                    "internalType": "address",
                    "name": "from",
                    "type": "address"
                },
                {
                    "indexed": true,
                    "internalType": "address",
                    "name": "to",
                    "type": "address"
                },
                {
                    "indexed": false,
                    "internalType": "uint256[]",
                    "name": "ids",
                    "type": "uint256[]"
                },
                {
                    "indexed": false,
                    "internalType": "uint256[]",
                    "name": "values",
                    "type": "uint256[]"
                }
            ],
            "name": "TransferBatch",
            "type": "event"
        },
        {
            "anonymous": false,
            "inputs": [
                {
                    "indexed": true,
                    "internalType": "address",
                    "name": "operator",
                    "type": "address"
                },
                {
                    "indexed": true,
                    "internalType": "address",
                    "name": "from",
                    "type": "address"
                },
                {
                    "indexed": true,
                    "internalType": "address",
                    "name": "to",
                    "type": "address"
                },
                {
                    "indexed": false,
                    "internalType": "uint256",
                    "name": "id",
                    "type": "uint256"
                },
                {
                    "indexed": false,
                    "internalType": "uint256",
                    "name": "value",
                    "type": "uint256"
                }
            ],
            "name": "TransferSingle",
            "type": "event"
        },
        {
            "anonymous": false,
            "inputs": [
                {
                    "indexed": false,
                    "internalType": "string",
                    "name": "value",
                    "type": "string"
                },
                {
                    "indexed": true,
                    "internalType": "uint256",
                    "name": "id",
                    "type": "uint256"
                }
            ],
            "name": "URI",
            "type": "event"
        },
        {
            "inputs": [
                {
                    "internalType": "address",
                    "name": "account",
                    "type": "address"
                },
                {
                    "internalType": "uint256",
                    "name": "id",
                    "type": "uint256"
                }
            ],
            "name": "balanceOf",
            "outputs": [
                {
                    "internalType": "uint256",
                    "name": "",
                    "type": "uint256"
                }
            ],
            "stateMutability": "view",
            "type": "function"
        },
        {
            "inputs": [
                {
                    "internalType": "address[]",
                    "name": "accounts",
                    "type": "address[]"
                },
                {
                    "internalType": "uint256[]",
                    "name": "ids",
                    "type": "uint256[]"
                }
            ],
            "name": "balanceOfBatch",
            "outputs": [
                {
                    "internalType": "uint256[]",
                    "name": "",
                    "type": "uint256[]"
                }
            ],
            "stateMutability": "view",
            "type": "function"
        },
        {
            "inputs": [
                {
                    "internalType": "address",
                    "name": "account",
                    "type": "address"
                },
                {
                    "internalType": "address",
                    "name": "operator",
                    "type": "address"
                }
            ],
            "name": "isApprovedForAll",
            "outputs": [
                {
                    "internalType": "bool",
                    "name": "",
                    "type": "bool"
                }
            ],
            "stateMutability": "view",
            "type": "function"
        },
        {
            "inputs": [
                {
                    "internalType": "address",
                    "name": "to",
                    "type": "address"
                },
                {
                    "internalType": "uint256",
                    "name": "id",
                    "type": "uint256"
                },
                {
                    "internalType": "uint256",
                    "name": "amount",
                    "type": "uint256"
                }
            ],
            "name": "ownerMint",
            "outputs": [],
            "stateMutability": "payable",
            "type": "function"
        },
        {
            "inputs": [
                {
                    "internalType": "address",
                    "name": "from",
                    "type": "address"
                },
                {
                    "internalType": "address",
                    "name": "to",
                    "type": "address"
                },
                {
                    "internalType": "uint256[]",
                    "name": "ids",
                    "type": "uint256[]"
                },
                {
                    "internalType": "uint256[]",
                    "name": "values",
                    "type": "uint256[]"
                },
                {
                    "internalType": "bytes",
                    "name": "data",
                    "type": "bytes"
                }
            ],
            "name": "safeBatchTransferFrom",
            "outputs": [],
            "stateMutability": "nonpayable",
            "type": "function"
        },
        {
            "inputs": [
                {
                    "internalType": "address",
                    "name": "from",
                    "type": "address"
                },
                {
                    "internalType": "address",
                    "name": "to",
                    "type": "address"
                },
                {
                    "internalType": "uint256",
                    "name": "id",
                    "type": "uint256"
                },
                {
                    "internalType": "uint256",
                    "name": "value",
                    "type": "uint256"
                },
                {
                    "internalType": "bytes",
                    "name": "data",
                    "type": "bytes"
                }
            ],
            "name": "safeTransferFrom",
            "outputs": [],
            "stateMutability": "nonpayable",
            "type": "function"
        },
        {
            "inputs": [
                {
                    "internalType": "address",
                    "name": "operator",
                    "type": "address"
                },
                {
                    "internalType": "bool",
                    "name": "approved",
                    "type": "bool"
                }
            ],
            "name": "setApprovalForAll",
            "outputs": [],
            "stateMutability": "nonpayable",
            "type": "function"
        },
        {
            "inputs": [
                {
                    "internalType": "bytes4",
                    "name": "interfaceId",
                    "type": "bytes4"
                }
            ],
            "name": "supportsInterface",
            "outputs": [
                {
                    "internalType": "bool",
                    "name": "",
                    "type": "bool"
                }
            ],
            "stateMutability": "view",
            "type": "function"
        },
        {
            "inputs": [
                {
                    "internalType": "uint256",
                    "name": "",
                    "type": "uint256"
                }
            ],
            "name": "uri",
            "outputs": [
                {
                    "internalType": "string",
                    "name": "",
                    "type": "string"
                }
            ],
            "stateMutability": "view",
            "type": "function"
        }
    ],
    "bytecode": "0x608060405234801561001057600080fd5b506040518060800160405280605a8152602001612402605a91396100398161003f60201b60201c565b50610374565b806002908161004e91906102a2565b5050565b600081519050919050565b7f4e487b7100000000000000000000000000000000000000000000000000000000600052604160045260246000fd5b7f4e487b7100000000000000000000000000000000000000000000000000000000600052602260045260246000fd5b600060028204905060018216806100d357607f821691505b6020821081036100e6576100e561008c565b5b50919050565b60008190508160005260206000209050919050565b60006020601f8301049050919050565b600082821b905092915050565b60006008830261014e7fffffffffffffffffffffffffffffffffffffffffffffffffffffffffffffffff82610111565b6101588683610111565b95508019841693508086168417925050509392505050565b6000819050919050565b6000819050919050565b600061019f61019a61019584610170565b61017a565b610170565b9050919050565b6000819050919050565b6101b983610184565b6101cd6101c5826101a6565b84845461011e565b825550505050565b600090565b6101e26101d5565b6101ed8184846101b0565b505050565b5b81811015610211576102066000826101da565b6001810190506101f3565b5050565b601f82111561025657610227816100ec565b61023084610101565b8101602085101561023f578190505b61025361024b85610101565b8301826101f2565b50505b505050565b600082821c905092915050565b60006102796000198460080261025b565b1980831691505092915050565b60006102928383610268565b9150826002028217905092915050565b6102ab82610052565b67ffffffffffffffff8111156102c4576102c361005d565b5b6102ce82546100bb565b6102d9828285610215565b600060209050601f83116001811461030c57600084156102fa578287015190505b6103048582610286565b86555061036c565b601f19841661031a866100ec565b60005b828110156103425784890151825560018201915060208501945060208101905061031d565b8683101561035f578489015161035b601f891682610268565b8355505b6001600288020188555050505b505050505050565b61207f806103836000396000f3fe6080604052600436106100855760003560e01c8063388b9fe011610059578063388b9fe01461016a5780634e1273f414610186578063a22cb465146101c3578063e985e9c5146101ec578063f242432a1461022957610085565b8062fdd58e1461008a57806301ffc9a7146100c75780630e89341c146101045780632eb2c2d614610141575b600080fd5b34801561009657600080fd5b506100b160048036038101906100ac9190611485565b610252565b6040516100be91906114d4565b60405180910390f35b3480156100d357600080fd5b506100ee60048036038101906100e99190611547565b6102ac565b6040516100fb919061158f565b60405180910390f35b34801561011057600080fd5b5061012b600480360381019061012691906115aa565b61038e565b6040516101389190611667565b60405180910390f35b34801561014d57600080fd5b5061016860048036038101906101639190611886565b610422565b005b610184600480360381019061017f9190611955565b6104ca565b005b34801561019257600080fd5b506101ad60048036038101906101a89190611a6b565b6104ea565b6040516101ba9190611ba1565b60405180910390f35b3480156101cf57600080fd5b506101ea60048036038101906101e59190611bef565b6105f3565b005b3480156101f857600080fd5b50610213600480360381019061020e9190611c2f565b610609565b604051610220919061158f565b60405180910390f35b34801561023557600080fd5b50610250600480360381019061024b9190611c6f565b61069d565b005b600080600083815260200190815260200160002060008473ffffffffffffffffffffffffffffffffffffffff1673ffffffffffffffffffffffffffffffffffffffff16815260200190815260200160002054905092915050565b60007fd9b67a26000000000000000000000000000000000000000000000000000000007bffffffffffffffffffffffffffffffffffffffffffffffffffffffff1916827bffffffffffffffffffffffffffffffffffffffffffffffffffffffff1916148061037757507f0e89341c000000000000000000000000000000000000000000000000000000007bffffffffffffffffffffffffffffffffffffffffffffffffffffffff1916827bffffffffffffffffffffffffffffffffffffffffffffffffffffffff1916145b80610387575061038682610745565b5b9050919050565b60606002805461039d90611d35565b80601f01602080910402602001604051908101604052809291908181526020018280546103c990611d35565b80156104165780601f106103eb57610100808354040283529160200191610416565b820191906000526020600020905b8154815290600101906020018083116103f957829003601f168201915b50505050509050919050565b600061042c6107af565b90508073ffffffffffffffffffffffffffffffffffffffff168673ffffffffffffffffffffffffffffffffffffffff1614158015610471575061046f8682610609565b155b156104b55780866040517fe237d9220000000000000000000000000000000000000000000000000000000081526004016104ac929190611d75565b60405180910390fd5b6104c286868686866107b7565b505050505050565b6104e5838383604051806020016040528060008152506108af565b505050565b6060815183511461053657815183516040517f5b05999100000000000000000000000000000000000000000000000000000000815260040161052d929190611d9e565b60405180910390fd5b6000835167ffffffffffffffff8111156105535761055261168e565b5b6040519080825280602002602001820160405280156105815781602001602082028036833780820191505090505b50905060005b84518110156105e8576105be6105a6828761094890919063ffffffff16565b6105b9838761095c90919063ffffffff16565b610252565b8282815181106105d1576105d0611dc7565b5b602002602001018181525050806001019050610587565b508091505092915050565b6106056105fe6107af565b8383610970565b5050565b6000600160008473ffffffffffffffffffffffffffffffffffffffff1673ffffffffffffffffffffffffffffffffffffffff16815260200190815260200160002060008373ffffffffffffffffffffffffffffffffffffffff1673ffffffffffffffffffffffffffffffffffffffff16815260200190815260200160002060009054906101000a900460ff16905092915050565b60006106a76107af565b90508073ffffffffffffffffffffffffffffffffffffffff168673ffffffffffffffffffffffffffffffffffffffff16141580156106ec57506106ea8682610609565b155b156107305780866040517fe237d922000000000000000000000000000000000000000000000000000000008152600401610727929190611d75565b60405180910390fd5b61073d8686868686610ae0565b505050505050565b60007f01ffc9a7000000000000000000000000000000000000000000000000000000007bffffffffffffffffffffffffffffffffffffffffffffffffffffffff1916827bffffffffffffffffffffffffffffffffffffffffffffffffffffffff1916149050919050565b600033905090565b600073ffffffffffffffffffffffffffffffffffffffff168473ffffffffffffffffffffffffffffffffffffffff16036108295760006040517f57f447ce0000000000000000000000000000000000000000000000000000000081526004016108209190611df6565b60405180910390fd5b600073ffffffffffffffffffffffffffffffffffffffff168573ffffffffffffffffffffffffffffffffffffffff160361089b5760006040517f01a835140000000000000000000000000000000000000000000000000000000081526004016108929190611df6565b60405180910390fd5b6108a88585858585610beb565b5050505050565b600073ffffffffffffffffffffffffffffffffffffffff168473ffffffffffffffffffffffffffffffffffffffff16036109215760006040517f57f447ce0000000000000000000000000000000000000000000000000000000081526004016109189190611df6565b60405180910390fd5b60008061092e8585610c9d565b91509150610940600087848487610beb565b505050505050565b600060208202602084010151905092915050565b600060208202602084010151905092915050565b600073ffffffffffffffffffffffffffffffffffffffff168273ffffffffffffffffffffffffffffffffffffffff16036109e25760006040517fced3e1000000000000000000000000000000000000000000000000000000000081526004016109d99190611df6565b60405180910390fd5b80600160008573ffffffffffffffffffffffffffffffffffffffff1673ffffffffffffffffffffffffffffffffffffffff16815260200190815260200160002060008473ffffffffffffffffffffffffffffffffffffffff1673ffffffffffffffffffffffffffffffffffffffff16815260200190815260200160002060006101000a81548160ff0219169083151502179055508173ffffffffffffffffffffffffffffffffffffffff168373ffffffffffffffffffffffffffffffffffffffff167f17307eab39ab6107e8899845ad3d59bd9653f200f220920489ca2b5937696c3183604051610ad3919061158f565b60405180910390a3505050565b600073ffffffffffffffffffffffffffffffffffffffff168473ffffffffffffffffffffffffffffffffffffffff1603610b525760006040517f57f447ce000000000000000000000000000000000000000000000000000000008152600401610b499190611df6565b60405180910390fd5b600073ffffffffffffffffffffffffffffffffffffffff168573ffffffffffffffffffffffffffffffffffffffff1603610bc45760006040517f01a83514000000000000000000000000000000000000000000000000000000008152600401610bbb9190611df6565b60405180910390fd5b600080610bd18585610c9d565b91509150610be28787848487610beb565b50505050505050565b610bf785858585610ccd565b600073ffffffffffffffffffffffffffffffffffffffff168473ffffffffffffffffffffffffffffffffffffffff1614610c96576000610c356107af565b90506001845103610c85576000610c5660008661095c90919063ffffffff16565b90506000610c6e60008661095c90919063ffffffff16565b9050610c7e838989858589611075565b5050610c94565b610c93818787878787611229565b5b505b5050505050565b60608060405191506001825283602083015260408201905060018152826020820152604081016040529250929050565b8051825114610d1757815181516040517f5b059991000000000000000000000000000000000000000000000000000000008152600401610d0e929190611d9e565b60405180910390fd5b6000610d216107af565b905060005b8351811015610f30576000610d44828661095c90919063ffffffff16565b90506000610d5b838661095c90919063ffffffff16565b9050600073ffffffffffffffffffffffffffffffffffffffff168873ffffffffffffffffffffffffffffffffffffffff1614610e8857600080600084815260200190815260200160002060008a73ffffffffffffffffffffffffffffffffffffffff1673ffffffffffffffffffffffffffffffffffffffff16815260200190815260200160002054905081811015610e3057888183856040517f03dee4c5000000000000000000000000000000000000000000000000000000008152600401610e279493929190611e11565b60405180910390fd5b81810360008085815260200190815260200160002060008b73ffffffffffffffffffffffffffffffffffffffff1673ffffffffffffffffffffffffffffffffffffffff16815260200190815260200160002081905550505b600073ffffffffffffffffffffffffffffffffffffffff168773ffffffffffffffffffffffffffffffffffffffff1614610f23578060008084815260200190815260200160002060008973ffffffffffffffffffffffffffffffffffffffff1673ffffffffffffffffffffffffffffffffffffffff1681526020019081526020016000206000828254610f1b9190611e85565b925050819055505b5050806001019050610d26565b506001835103610fef576000610f5060008561095c90919063ffffffff16565b90506000610f6860008561095c90919063ffffffff16565b90508573ffffffffffffffffffffffffffffffffffffffff168773ffffffffffffffffffffffffffffffffffffffff168473ffffffffffffffffffffffffffffffffffffffff167fc3d58168c5ae7397731d063d5bbf3d657854427343f4c083240f7aacaa2d0f628585604051610fe0929190611d9e565b60405180910390a4505061106e565b8373ffffffffffffffffffffffffffffffffffffffff168573ffffffffffffffffffffffffffffffffffffffff168273ffffffffffffffffffffffffffffffffffffffff167f4a39dc06d4c0dbc64b70af90fd698a233a518aa5d07e595d983b8c0526c8f7fb8686604051611065929190611eb9565b60405180910390a45b5050505050565b60008473ffffffffffffffffffffffffffffffffffffffff163b1115611221578373ffffffffffffffffffffffffffffffffffffffff1663f23a6e6187878686866040518663ffffffff1660e01b81526004016110d6959493929190611f45565b6020604051808303816000875af192505050801561111257506040513d601f19601f8201168201806040525081019061110f9190611fb4565b60015b611196573d8060008114611142576040519150601f19603f3d011682016040523d82523d6000602084013e611147565b606091505b50600081510361118e57846040517f57f447ce0000000000000000000000000000000000000000000000000000000081526004016111859190611df6565b60405180910390fd5b805181602001fd5b63f23a6e6160e01b7bffffffffffffffffffffffffffffffffffffffffffffffffffffffff1916817bffffffffffffffffffffffffffffffffffffffffffffffffffffffff19161461121f57846040517f57f447ce0000000000000000000000000000000000000000000000000000000081526004016112169190611df6565b60405180910390fd5b505b505050505050565b60008473ffffffffffffffffffffffffffffffffffffffff163b11156113d5578373ffffffffffffffffffffffffffffffffffffffff1663bc197c8187878686866040518663ffffffff1660e01b815260040161128a959493929190611fe1565b6020604051808303816000875af19250505080156112c657506040513d601f19601f820116820180604052508101906112c39190611fb4565b60015b61134a573d80600081146112f6576040519150601f19603f3d011682016040523d82523d6000602084013e6112fb565b606091505b50600081510361134257846040517f57f447ce0000000000000000000000000000000000000000000000000000000081526004016113399190611df6565b60405180910390fd5b805181602001fd5b63bc197c8160e01b7bffffffffffffffffffffffffffffffffffffffffffffffffffffffff1916817bffffffffffffffffffffffffffffffffffffffffffffffffffffffff1916146113d357846040517f57f447ce0000000000000000000000000000000000000000000000000000000081526004016113ca9190611df6565b60405180910390fd5b505b505050505050565b6000604051905090565b600080fd5b600080fd5b600073ffffffffffffffffffffffffffffffffffffffff82169050919050565b600061141c826113f1565b9050919050565b61142c81611411565b811461143757600080fd5b50565b60008135905061144981611423565b92915050565b6000819050919050565b6114628161144f565b811461146d57600080fd5b50565b60008135905061147f81611459565b92915050565b6000806040838503121561149c5761149b6113e7565b5b60006114aa8582860161143a565b92505060206114bb85828601611470565b9150509250929050565b6114ce8161144f565b82525050565b60006020820190506114e960008301846114c5565b92915050565b60007fffffffff0000000000000000000000000000000000000000000000000000000082169050919050565b611524816114ef565b811461152f57600080fd5b50565b6000813590506115418161151b565b92915050565b60006020828403121561155d5761155c6113e7565b5b600061156b84828501611532565b91505092915050565b60008115159050919050565b61158981611574565b82525050565b60006020820190506115a46000830184611580565b92915050565b6000602082840312156115c0576115bf6113e7565b5b60006115ce84828501611470565b91505092915050565b600081519050919050565b600082825260208201905092915050565b60005b838110156116115780820151818401526020810190506115f6565b60008484015250505050565b6000601f19601f8301169050919050565b6000611639826115d7565b61164381856115e2565b93506116538185602086016115f3565b61165c8161161d565b840191505092915050565b60006020820190508181036000830152611681818461162e565b905092915050565b600080fd5b7f4e487b7100000000000000000000000000000000000000000000000000000000600052604160045260246000fd5b6116c68261161d565b810181811067ffffffffffffffff821117156116e5576116e461168e565b5b80604052505050565b60006116f86113dd565b905061170482826116bd565b919050565b600067ffffffffffffffff8211156117245761172361168e565b5b602082029050602081019050919050565b600080fd5b600061174d61174884611709565b6116ee565b905080838252602082019050602084028301858111156117705761176f611735565b5b835b8181101561179957806117858882611470565b845260208401935050602081019050611772565b5050509392505050565b600082601f8301126117b8576117b7611689565b5b81356117c884826020860161173a565b91505092915050565b600080fd5b600067ffffffffffffffff8211156117f1576117f061168e565b5b6117fa8261161d565b9050602081019050919050565b82818337600083830152505050565b6000611829611824846117d6565b6116ee565b905082815260208101848484011115611845576118446117d1565b5b611850848285611807565b509392505050565b600082601f83011261186d5761186c611689565b5b813561187d848260208601611816565b91505092915050565b600080600080600060a086880312156118a2576118a16113e7565b5b60006118b08882890161143a565b95505060206118c18882890161143a565b945050604086013567ffffffffffffffff8111156118e2576118e16113ec565b5b6118ee888289016117a3565b935050606086013567ffffffffffffffff81111561190f5761190e6113ec565b5b61191b888289016117a3565b925050608086013567ffffffffffffffff81111561193c5761193b6113ec565b5b61194888828901611858565b9150509295509295909350565b60008060006060848603121561196e5761196d6113e7565b5b600061197c8682870161143a565b935050602061198d86828701611470565b925050604061199e86828701611470565b9150509250925092565b600067ffffffffffffffff8211156119c3576119c261168e565b5b602082029050602081019050919050565b60006119e76119e2846119a8565b6116ee565b90508083825260208201905060208402830185811115611a0a57611a09611735565b5b835b81811015611a335780611a1f888261143a565b845260208401935050602081019050611a0c565b5050509392505050565b600082601f830112611a5257611a51611689565b5b8135611a628482602086016119d4565b91505092915050565b60008060408385031215611a8257611a816113e7565b5b600083013567ffffffffffffffff811115611aa057611a9f6113ec565b5b611aac85828601611a3d565b925050602083013567ffffffffffffffff811115611acd57611acc6113ec565b5b611ad9858286016117a3565b9150509250929050565b600081519050919050565b600082825260208201905092915050565b6000819050602082019050919050565b611b188161144f565b82525050565b6000611b2a8383611b0f565b60208301905092915050565b6000602082019050919050565b6000611b4e82611ae3565b611b588185611aee565b9350611b6383611aff565b8060005b83811015611b94578151611b7b8882611b1e565b9750611b8683611b36565b925050600181019050611b67565b5085935050505092915050565b60006020820190508181036000830152611bbb8184611b43565b905092915050565b611bcc81611574565b8114611bd757600080fd5b50565b600081359050611be981611bc3565b92915050565b60008060408385031215611c0657611c056113e7565b5b6000611c148582860161143a565b9250506020611c2585828601611bda565b9150509250929050565b60008060408385031215611c4657611c456113e7565b5b6000611c548582860161143a565b9250506020611c658582860161143a565b9150509250929050565b600080600080600060a08688031215611c8b57611c8a6113e7565b5b6000611c998882890161143a565b9550506020611caa8882890161143a565b9450506040611cbb88828901611470565b9350506060611ccc88828901611470565b925050608086013567ffffffffffffffff811115611ced57611cec6113ec565b5b611cf988828901611858565b9150509295509295909350565b7f4e487b7100000000000000000000000000000000000000000000000000000000600052602260045260246000fd5b60006002820490506001821680611d4d57607f821691505b602082108103611d6057611d5f611d06565b5b50919050565b611d6f81611411565b82525050565b6000604082019050611d8a6000830185611d66565b611d976020830184611d66565b9392505050565b6000604082019050611db360008301856114c5565b611dc060208301846114c5565b9392505050565b7f4e487b7100000000000000000000000000000000000000000000000000000000600052603260045260246000fd5b6000602082019050611e0b6000830184611d66565b92915050565b6000608082019050611e266000830187611d66565b611e3360208301866114c5565b611e4060408301856114c5565b611e4d60608301846114c5565b95945050505050565b7f4e487b7100000000000000000000000000000000000000000000000000000000600052601160045260246000fd5b6000611e908261144f565b9150611e9b8361144f565b9250828201905080821115611eb357611eb2611e56565b5b92915050565b60006040820190508181036000830152611ed38185611b43565b90508181036020830152611ee78184611b43565b90509392505050565b600081519050919050565b600082825260208201905092915050565b6000611f1782611ef0565b611f218185611efb565b9350611f318185602086016115f3565b611f3a8161161d565b840191505092915050565b600060a082019050611f5a6000830188611d66565b611f676020830187611d66565b611f7460408301866114c5565b611f8160608301856114c5565b8181036080830152611f938184611f0c565b90509695505050505050565b600081519050611fae8161151b565b92915050565b600060208284031215611fca57611fc96113e7565b5b6000611fd884828501611f9f565b91505092915050565b600060a082019050611ff66000830188611d66565b6120036020830187611d66565b81810360408301526120158186611b43565b905081810360608301526120298185611b43565b9050818103608083015261203d8184611f0c565b9050969550505050505056fea2646970667358221220d98abcbb024e61ae95add621f4b4ccdce8016e04fb3e519b4bafabbd0e94ed7b64736f6c634300081b003368747470733a2f2f676174657761792e70696e6174612e636c6f75642f697066732f516d5979576163614434624d77736b5351384748567755595a6557344a77706a793847596f6255473870384c53792f7b69647d2e6a736f6e",
    "linkReferences": {},
    "deployedLinkReferences": {}
}